:020000020000FC
:0200000027C017
:04000C000C947500DB
:040024000C94110126
:100038000C946F01D714CD5D1E5BDB15DF5F0000EC
:10004800A80135034803A00308E00EBF0FEF0DBF5A
:1000580002E004BD04E005BD02E000936E0009E182
:1000680007BD2D98259A289A299A2A9A2B9A0FE043
:1000780000936B0001E0009368000FEF0AB907B91D
:1000880000E0402E0093030102E00093040105E024
:100098000093010104E0009302014FEF5FEF6FEF5F
:1000A8006A95F1F75A95D9F74A95C1F7F89405E09A
:1000B8000093B10000270093B20000E20093B6005D
:1000C80002E000937000332778940C9468004AE0AB
:1000D8005FEF6FEF6A95F1F75A95D9F74A95C1F72F
:1000E800089500270093680002E000936E0033270C
:1000F800432E03B100950F7003130C948F00332720
:1001080030936E0038B901E000936800002700932F
:100118006F000C9468000000332730936800F8944F
:1001280008E00093800002E00093810001EA009358
:10013800880000E00093890002E000936F00B19A04
:100148007894B19B0C94A5000000F89403B1009535
:100158000F700030A1F21B990C94A300F894332778
:1001680003B100950F7003130C94B3003327309339
:100178000801F8940AE0009307010093090100932D
:100188000A0106E0402EB19A7894B19B0C94C900FC
:100198000000F89430910801199B33950000343021
:1001A80088F4309308011A990C94C7000000330FA3
:1001B800E8E4F0E000278894E30FF01F25913491DC
:1001C800F90109943FEF0C94D50000910B010A95B1
:1001D80000930B010F3F31F509E000930B010091EB
:1001E8000A010A9500930A010F3FE1F405E0009324
:1001F8000A0100910C010A9500930C010F3F91F43C
:1002080009E000930C0100910D010A9500930D017E
:100218000F3F41F405E000930D011F930F93052D47
:10022800043699F2032D00950F6D302E0CE31091D2
:100238000001139510930001101332C01127109379
:1002480000010AE0109102011395109302011013A6
:1002580027C011271093020106E0109101011395A0
:100268001093010110131CC011271093010104E021
:10027800109103011395109303011017D1F00AE0B0
:10028800109103011093030110130AC01127109352
:100298000301109104011A3031F0139510930401F1
:1002A8000F911F91189511E0109304010F911F9160
:1002B80018951091040102E0101711F00C944301F5
:1002C8001127109303011AE0109304010E94AC0453
:1002D8000F911F9118952D9B0C947B01000008B17C
:1002E8000071003019F044980C947B01449A4395AE
:1002F8004F9301E04A9509F403C0000F4A95E9F7C6
:100308001FEF1BB948B14071042B08B94F91F894FD
:10031800C0E0C40FC40DD1E00027D01F18814430BD
:1003280010F40C9498014427ECE3E10FF0E0002767
:10033800F01F049116B1110F110F110F1095132909
:10034800009501230BB91895F8942D980091130185
:1003580000930B010091140100930A01009115010B
:1003680000930C010091160100930D013327532EC1
:1003780003B100950F7003130C94BC010027009380
:1003880085000093840009E0402E3327B19A7894C1
:10039800B19B0C94CC010000F894199B0E94500268
:1003A80000001B9B0E94670200001A990C94CA0166
:1003B800F89409E0402E332703B100950F7003131A
:1003C8000C94DF0100270093850000938400B19A04
:1003D8007894B19B0C94ED010000F894199B0E944D
:1003E8007E0200001B9B00001A990C94EB010091FF
:1003F8000B010093130100910A010093140100916D
:100408000C010093150100910D01009316010027BE
:10041800009385000093840004E6502EB19A7894E6
:10042800B19B0C9414020000F89400910D013091D6
:100438000C01030F30910A01031F30910B01031FB8
:10044800003061F7F8942D9A332703B100950F70A7
:1004580003130C9428023327432E532EB19A789411
:10046800B19B0C9434020000F8941B9B0C94A801D7
:10047800199B0C94AC021A990C9432020000F8945F
:100488002D98332730936E0030936F0038B901E010
:10049800009368000C94680000910B010395009389
:1004A8000B010A3008F40895002700930B0100910E
:1004B8000A01039500930A01063008F408950027FD
:1004C80000930A01089500910B010A950F3F19F056
:1004D80000930B01089509E000930B0100910A01B4
:1004E8000A950F3F19F000930A01089505E000935B
:1004F8000A01089500910C01039500930C010A303C
:1005080008F40895002700930C0100910D0103954C
:1005180000930D01063008F40895002700930D019B
:10052800089500910C010A950F3F19F000930C01F2
:10053800089509E000930C0100910D010A950F3F01
:1005480019F000930D01089505E000930D01089539
:100558002D980091170100930B0100911801009349
:100568000A010091190100930C0100911A010093EE
:100578000D013327532E03B100950F7003130C940C
:10058800BF020027009385000093840009E0402EF5
:100598003327B19A7894B19B0C94CF020000F89459
:1005A800199B0E94500200001B9B0E9467020000DA
:1005B8001A990C94CD02F89409E0402E332703B120
:1005C80000950F7003130C94E20200270093850036
:1005D80000938400B19A7894B19B0C94F0020000C7
:1005E800F894199B0E947E0200001B9B00001A9938
:1005F8000C94EE0200910B010093170100910A017F
:100608000093180100910C010093190100910D014C
:1006180000931A010027009385000093840004E6E4
:10062800502EB19A7894B19B0C9417030000F8945B
:1006380000910D0130910C01030F30910A01031F45
:1006480030910B01031F003061F7F8942D9A33277E
:1006580003B100950F7003130C942B0300000C9446
:100668002F02000006E000930601009307010093A3
:1006780008010093090101E0009368000027009336
:100688006F0078940C946800F8942D9800911F01DD
:1006980000930B010091200100930A0100912201AF
:1006A80000930C010091230100930D013327532E71
:1006B80003B100950F7003130C945C03002700939B
:1006C80085000093840009E0402EB19A7894B19B8C
:1006D8000C946B030000F8941A990C946903009128
:1006E800210100930B010AE000930A0100930C0119
:1006F80000930D0103B100950F7003130C947E0352
:100708000027009385000093840009E0402EB19AE9
:100718007894B19B0C948D030000F8941A990C946A
:100728008B0301E000936800002700936F0000939B
:100738006E0078940C946800F8942D98009102014A
:1007480000930B010091010100930A01009103013C
:1007580000930C010091040100930D013327532EDF
:1007680003B100950F7003130C94B4030027009392
:1007780085000093840009E0402E3327B19A7894CD
:10078800B19B0C94C4030000F894199B0E9450027A
:1007980000001B9B0E94670200001A990C94C20378
:1007A800F89409E0402E332703B100950F70031326
:1007B8000C94D70300270093850000938400B19A16
:1007C8007894B19B0C94E5030000F894199B0E945F
:1007D800100500001A990C94E3030000332703B1B5
:1007E80000950F7003130C94F20300910B01009312
:1007F800020100910A010093010100910C0100938C
:10080800030100910D010093040100911F01009361
:100818000B010091200100930A010091220100932D
:100828000C010091230100930D013327532E03B1CE
:1008380000950F7003130C941B0400270093850088
:100848000093840009E0402E3327B19A7894B19B35
:100858000C942B040000F894199B0E94500200008D
:100868001B9B0E94670200001A990C942904F894B3
:1008780009E0402E332703B100950F7003130C9441
:100888003E0400270093850000938400B19A789471
:10089800B19B0C944C040000F894199B0E9410051D
:1008A80000001A990C944A040000332703B10095FC
:1008B8000F7003130C94590400910B0100931F014E
:1008C80000910A010093200100910C01009322017C
:1008D80000910D01009323010091210100930B0168
:1008E8000AE000930A0100930C0100930D013327DD
:1008F80003B100950F7003130C947B040027009339
:10090800850000938400B19A7894B19B0C94890473
:100918000000F89400912101199B0395000008300C
:1009280090F40093210100930B011A990C94870409
:1009380001E000936800002700936F0000936E00A9
:1009480078940C9468000027009321010C94970474
:1009580000912101039500932101083018F001E06E
:100968000093210100911F01039500931F010A3094
:1009780040F0002700931F01009120010395009388
:1009880020013AE0039F002D30911F01030F003230
:1009980000F50F3181F430912301009122013130AB
:1009A80011F43AE0030F0430A1F0063091F0093059
:1009B80081F00B3071F00E3161F00D31D1F03091D2
:1009C800230110912201313011F43AE0130F123053
:1009D80081F401E000931F0100270093200110918A
:1009E80022011395109322011A3020F001E00093A0
:1009F800230108953091230100912201313011F42F
:100A08003AE0030F0D30A8F300270093230101E01B
:100A1800009322010C94FD0400910C0103950093AE
:100A28000C010A3049F030910D011AE0319F302D48
:100A3800030F083150F40895002700930C0100912A
:100A48000D01039500930D010895002700930D01F2
:060A580000930C0108955B
:00000001FF
